:100000000C9434000C943E000C943E000C943E0082
:100010000C943E000C943E000C943E000C943E0068
:100020000C943E000C943E000C943E000C943E0058
:100030000C943E000C943E000C943E000C943E0048
:100040000C943E000C943E000C943E000C943E0038
:100050000C943E000C943E000C943E000C943E0028
:100060000C943E000C943E0011241FBECFEFD8E04C
:10007000DEBFCDBF0E94C3000C94E9000C940000C9
:100080005F9A08955F9808955C9A08955C98089522
:100090005D9A08955D9808955E9A08955E98089512
:1000A0005A9A08955A980895599A08955998089512
:1000B00089B183FB882780F990E008950F931F93FF
:1000C000CF93DF930E9452000E9454000E9456007A
:1000D0000E9450000E9458008C010E9452000E9411
:1000E0005400C1E0D0E00E9450000E9458000C2E45
:1000F00002C0880F991F0A94E2F7082B192B0E945F
:1001000052002196C031D10571F7C801DF91CF911E
:100110001F910F910895EF92FF920F931F93CF932A
:10012000DF937C010E944A000E944E000E9444001E
:10013000C0E0D0E001E010E0C8010C2E02C0880F42
:10014000991F0A94E2F79C012E213F218217930701
:1001500019F00E94400002C00E9442000E944C0020
:100160000E944A000E944E000E9448002196C03121
:10017000D10511F70E944600DF91CF911F910F9199
:10018000FF90EF9008958AB186608AB98AB1806F36
:100190008AB984E084B9ECE7F0E01082AAE7B0E025
:1001A00080E88C938C9187608C93808183648083BA
:1001B00081E38093800081E08093810087EE90E06E
:1001C00090938B0080938A000E945E000E948B00B7
:0601D000FBCFF894FFCF05
:00000001FF
