S00E000050616E656C352E73726563F1
S11300000C9434000C943E000C943E000C943E007E
S11300100C943E000C943E000C943E000C943E0064
S11300200C943E000C943E000C943E000C943E0054
S11300300C943E000C943E000C943E000C943E0044
S11300400C943E000C943E000C943E000C943E0034
S11300500C943E000C943E000C943E000C943E0024
S11300600C943E000C943E0011241FBECFEFD8E048
S1130070DEBFCDBF0E94E5000C94F0000C9400009C
S11300805F9A08955F9808955C9A08955C9808951E
S11300905D9A08955D9808955E9A08955E9808950E
S11300A05A9A08955A980895599A0895599808950E
S11300B089B183FB882780F990E00895EF92FF923D
S11300C00F931F93CF93DF93082F0E944A000E943F
S11300D04E000E944400C0E0D0E0EE24E394F12CF2
S11300E010E097010C2E02C0220F331F0A94E2F78E
S11300F0A801422353232417350719F40E94400012
S113010002C00E9442000E944C000E944A000E94C9
S11301104E000E9448002196C830D10511F70E9474
S11301204600DF91CF911F910F91FF90EF900895BA
S113013080FF02C0409A01C0409881FF02C0419AEA
S113014001C0419882FF02C0429A01C0429883FFD5
S113015002C0439A0895439808950F931F93CF9331
S1130160DF930E9452000E9454000E9456000E9495
S113017050000E9458008C010E9452000E945400BA
S1130180C1E0D0E00E9450000E9458000C2E02C032
S1130190880F991F0A94E2F7082B192B0E9452002A
S11301A02196C031D10571F7C801DF91CF911F911C
S11301B00F9108958AB186608AB98AB1806F8AB92D
S11301C087B18F6087B9219A08950E94DA0015B823
S11301D080E00E9498000E94AD000E945E00FBCF68
S10701E0F894FFCFBD
S9030000FC
