:100000000C9434000C943E000C943E000C943E0082
:100010000C943E000C943E000C943E000C943E0068
:100020000C943E000C943E000C943E000C943E0058
:100030000C943E000C943E000C943E000C943E0048
:100040000C943E000C943E000C943E000C943E0038
:100050000C943E000C943E000C943E000C943E0028
:100060000C943E000C943E0011241FBECFEFD8E04C
:10007000DEBFCDBF0E94F7000C942F010C9400004E
:100080005E9A08955E9808955B9A08955B98089526
:100090005C9A08955C9808955D9A08955D98089516
:1000A000599A089559980895589A08955898089516
:1000B00089B182FB882780F990E00895EF92FF9242
:1000C0000F931F93CF93DF93082F0E944A000E9443
:1000D0004E000E944400C0E0D0E0EE24E394F12CF6
:1000E00010E097010C2E02C0220F331F0A94E2F792
:1000F000A801422353232417350719F40E94400016
:1001000002C00E9442000E944C000E944A000E94CD
:100110004E000E9448002196C830D10511F70E9478
:100120004600DF91CF911F910F91FF90EF900895BE
:1001300080FF02C0419A01C0419881FF02C0429AEB
:1001400001C0429882FF02C0439A089543980895DF
:100150000F931F93CF93DF930E9452000E9454008D
:100160000E9456000E9450000E9458008C010E947C
:1001700052000E945400C1E0D0E00E9450000E9452
:1001800058000C2E02C0880F991F0A94E2F7082B22
:10019000192B0E9452002196C031D10571F7C80178
:1001A000DF91CF911F910F9108958AB183608AB931
:1001B0008AB188678AB987B18E6087B9219AECE7DE
:1001C000F0E01082AAE7B0E080E88C938C91876021
:1001D0008C9380818064808381EC8093800089E0AF
:1001E00080938100109289001092880008950E94E7
:1001F000D5008FEF0E945E0080E00E9498008EE1A3
:1002000090E00F2EF8E8EF2EF12CF02D0F2EFEE1EE
:10021000DF2EF02DD0E08C010F5F1F4FF70191838F
:1002200080830E94A8000E945E00C0E08C2F0E9484
:1002300098008FEC97E00197F1F700C00000CF5FC6
:10024000C930A1F70233110511F40D2D1D2FEFEC6C
:10025000F7E03197F1F700C00000C801DCCFF89457
:02026000FFCFCE
:00000001FF
